:1000000074747474f4f4f4f4f4f4f4f4f4f4f4f4B0
:1000100074747474f4f4f4f4f4f4f4f4f4f4f4f4A0
:100020007474747cf4f4f4f4f4f4f4f4f4f4f4f488
:1000300074747474f4f4f4f4f4f4f4f4f4f4f4f480
:100040007474d4d4f4f4f4f4f4f4f4f4f4f4f4f4B0
:100050007474d4d4f4f4f4f4f4f4f4f4f4f4f4f4A0
:100060007474d4d4f4f4f4f4f4f4f4f4f4f4f4f490
:100070007474f4f4f4f4f4f4f4f4f4f4f4f4f4f440
:100080007474f4fcf4f4f4f4f4f4f4f4f4f4f4f428
:100090007474f4f4f4f4f4f4f4f4f4f4f4f4f4f420
:1000A0007474e4e4f4f4f4f4f4f4f4f4f4f4f4f430
:1000B0007474e4e4f4f4f4f4f4f4f4f4f4f4f4f420
:1000C0007474e4e4f4f4f4f4f4f4f4f4f4f4f4f410
:1000D0007474f0f0f4f4f4f4f4f4f4f4f4f4f4f4E8
:1000E0007474f0f0f4f4f4f4f4f4f4f4f4f4f4f4D8
:1000F0007474f0f8f4f4f4f4f4f4f4f4f4f4f4f4C0
:100100007474f4f4f4f4f4f4f4f4f4f4f4f4f4f4AF
:100110007474f4f4f4f4f4f4f4f4f4f4f4f4f4f49F
:100120007474f4fcf4f4f4f4f4f4f4f4f4f4f4f487
:100130007474f4f4f4f4f4f4f4f4f4f4f4f4f4f47F
:100140007474f4f4f4f4f4f4f4f4f4f4f4f4f4f46F
:100150007474f4fcf4f4f4f4f4f4f4f4f4f4f4f457
:100160007474d4d4f4f4f4f4f4f4f4f4f4f4f4f48F
:100170007474f4f4f4f4f4f4f4f4f4f4f4f4f4f43F
:100180007474d4d4f4f4f4f4f4f4f4f4f4f4f4f46F
:100190007474f4f4f4f4f4f4f4f4f4f4f4f4f4f41F
:1001A0007474b4b4f4f4f4f4f4f4f4f4f4f4f4f48F
:1001B0007474b4b4f4f4f4f4f4f4f4f4f4f4f4f47F
:1001C0007474f4f4f4f4f4f4f4f4f4f4f4f4f4f4EF
:1001D0007474f4fcf4f4f4f4f4f4f4f4f4f4f4f4D7
:1001E0007474f4f4f4f4f4f4f4f4f4f4f4f4f4f4CF
:1001F0007474f4f4f4f4f4f4f4f4f4f4f4f4f4f4BF
:00000001FF