:1000000074747474747474747474747474747474B0
:1000100074747474747474747474747474747474A0
:100020007474747C74747474747474747474747488
:100030007474747474747474747474747474747480
:100040007474D4D4747474747474747474747474B0
:100050007474D4DC74747474747474747474747498
:100060007474D4D474747474747474747474747490
:100070007474F4F474747474747474747474747440
:100080007474F4FC74747474747474747474747428
:100090007474F4F474747474747474747474747420
:1000A0007474E4E474747474747474747474747430
:1000B0007474E4E474747474747474747474747420
:1000C0007474E4E474747474747474747474747410
:1000D0007474F0F0747474747474747474747474E8
:1000E0007474F0F0747474747474747474747474D8
:1000F0007474F0F8747474747474747474747474C0
:100100007474F4F4747474747474747474747474AF
:100110007474F4F47474747474747474747474749F
:100120007474F4FC74747474747474747474747487
:100130007474F4F47474747474747474747474747F
:100140007474F4F47474747474747474747474746F
:100150007474F4F47474747474747474747474745F
:100160007474F4FC74747474747474747474747447
:100170007474F4F47474747474747474747474743F
:100180007474D4D47474747474747474747474746F
:100190007474F4F47474747474747474747474741F
:1001A0007474D4D47474747474747474747474744F
:1001B0007474D4F47474747474747474747474741F
:1001C0007474B4B47474747474747474747474746F
:1001D0007474B4B47474747474747474747474745F
:1001E0007474B4B47474747474747474747474744F
:1001F0007474B4B47474747474747474747474743F
:100200007474F4F4747474747474747474747474AE
:100210007474F4F47474747474747474747474749E
:100220007474F4F47474747474747474747474748E
:100230007474F4F47474747474747474747474747E
:100240007474F4FC74747474747474747474747466
:100250007474F4FC74747474747474747474747456
:100260007474F4F47474747474747474747474744E
:100270007474F4F47474747474747474747474743E
:10028000747474747474747474747474747474742E
:10029000747474747474747474747474747474741E
:1002A000747474747474747474747474747474740E
:1002B00074747474747474747474747474747474FE
:1002C00074747474747474747474747474747474EE
:1002D00074747474747474747474747474747474DE
:1002E00074747474747474747474747474747474CE
:1002F00074747474747474747474747474747474BE
:1003000074747474747474747474747474747474AD
:10031000747474747474747474747474747474749D
:10032000747474747474747474747474747474748D
:10033000747474747474747474747474747474747D
:10034000747474747474747474747474747474746D
:10035000747474747474747474747474747474745D
:10036000747474747474747474747474747474744D
:10037000747474747474747474747474747474743D
:10038000747474747474747474747474747474742D
:10039000747474747474747474747474747474741D
:1003A000747474747474747474747474747474740D
:1003B00074747474747474747474747474747474FD
:1003C00074747474747474747474747474747474ED
:1003D0007474F4F4747474747474747474747474DD
:1003E0007474F4F4F4FCF4F47474747474747474C5
:1003F00074747474747474747474747474747474BD
:00000001FF