:10000000F5F1F4707575757575757575757575752A
:10001000F5F1F4707575757575757575757575751A
:10002000F5F1F4707575757575757575757575750A
:10003000F5F1F478757575757575757575757575F2
:10004000F5F1F575757575757575757575757575E4
:10005000F5F1F575757575757575757575757575D4
:10006000F5F1F57D757575757575757575757575BC
:10007000F5F1F575757575757575757575757575B4
:10008000F5F1F575757575757575757575757575A4
:10009000F5F1F57D7575757575757575757575758C
:1000A000F5F1F57575757575757575757575757584
:1000B000F5F1F57575757575757575757575757574
:1000C000F5F1F57D7575757575757575757575755C
:1000D000F5F1F57575757575757575757575757554
:1000E000F5F1F57575757575757575757575757544
:1000F000F5F1F57575757575757575757575757534
:10010000F5F1B535757575757575757575757575A3
:10011000F5F1B53575757575757575757575757593
:10012000F5F1B53575757575757575757575757583
:10013000F5F1B53D7575757575757575757575756B
:10014000F5F1E46475757575757575757575757505
:10015000F5F1E464757575757575757575757575F5
:10016000F5F1E464757575757575757575757575E5
:10017000F5F1E46C757575757575757575757575CD
:10018000F5F1F555757575757575757575757575C3
:10019000F5F1F555757575757575757575757575B3
:1001A000F5F1E666757575757575757575757575A1
:1001B000F5F1E66675757575757575757575757591
:1001C000F5F1F57175757575757575757575757567
:1001D000F5F1F57175757575757575757575757557
:1001E000F5F1F57175757575757575757575757547
:1001F000F5F1F57175757575757575757575757537
:10020000F5F1F57575757575757575757575757522
:10021000F5F1F57575757575757575757575757512
:10022000F5F1F57575757575757575757575757502
:10023000F5F1F575757575757575757575757575F2
:10024000F5F1F575757575757575757575757575E2
:10025000F5F1F575757575757575757575757575D2
:10026000F5F1F57D757575757575757575757575BA
:10027000F5F1F57D757575757575757575757575AA
:10028000F5717575757575757575757575757575A2
:10029000F571757575757575757575757575757592
:1002A000F571757575757575757575757575757582
:1002B000F571757575757575757575757575757572
:1002C000F571757575757575757575757575757562
:1002D000F571757575757575757575757575757552
:1002E000F571757575757575757575757575757542
:1002F000F571757575757575757575757575757532
:10030000F571757575757575757575757575757521
:10031000F571757575757575757575757575757511
:10032000F571757575757575757575757575757501
:10033000F5717575757575757575757575757575F1
:10034000F5717575757575757575757575757575E1
:10035000F5717575757575757575757575757575D1
:10036000F5717575757575757575757575757575C1
:10037000F5717575757575757575757575757575B1
:10038000F5717575757575757575757575757575A1
:10039000F571757575757575757575757575757591
:1003A000F571757575757575757575757575757581
:1003B000F571757575757575757575757575757571
:1003C000F571757575757575757575757575757561
:1003D000F5F1F57575757575757575757575757551
:1003E000F5F1F5F5F5F5F575757575757575757541
:1003F000F571757575757575757575757575757531
:00000001FF